{
  "contractName": "Disperse",
  "abi": [
    {
      "anonymous": false,
      "inputs": [
        {
          "indexed": false,
          "internalType": "uint256",
          "name": "block",
          "type": "uint256"
        },
        {
          "indexed": false,
          "internalType": "uint256",
          "name": "value",
          "type": "uint256"
        }
      ],
      "name": "ALL_TRANSFERRED",
      "type": "event"
    },
    {
      "anonymous": false,
      "inputs": [
        {
          "indexed": true,
          "internalType": "address",
          "name": "previousOwner",
          "type": "address"
        },
        {
          "indexed": true,
          "internalType": "address",
          "name": "newOwner",
          "type": "address"
        }
      ],
      "name": "OwnershipTransferred",
      "type": "event"
    },
    {
      "inputs": [],
      "name": "owner",
      "outputs": [
        {
          "internalType": "address",
          "name": "",
          "type": "address"
        }
      ],
      "stateMutability": "view",
      "type": "function",
      "constant": true
    },
    {
      "inputs": [],
      "name": "renounceOwnership",
      "outputs": [],
      "stateMutability": "nonpayable",
      "type": "function"
    },
    {
      "inputs": [
        {
          "internalType": "address",
          "name": "newOwner",
          "type": "address"
        }
      ],
      "name": "transferOwnership",
      "outputs": [],
      "stateMutability": "nonpayable",
      "type": "function"
    },
    {
      "inputs": [
        {
          "internalType": "address[]",
          "name": "recipients",
          "type": "address[]"
        },
        {
          "internalType": "uint256[]",
          "name": "values",
          "type": "uint256[]"
        }
      ],
      "name": "disperseEther",
      "outputs": [],
      "stateMutability": "payable",
      "type": "function",
      "payable": true
    },
    {
      "inputs": [
        {
          "internalType": "contract IERC20",
          "name": "token",
          "type": "address"
        },
        {
          "internalType": "address[]",
          "name": "recipients",
          "type": "address[]"
        },
        {
          "internalType": "uint256[]",
          "name": "values",
          "type": "uint256[]"
        }
      ],
      "name": "disperseToken",
      "outputs": [],
      "stateMutability": "nonpayable",
      "type": "function"
    },
    {
      "inputs": [
        {
          "internalType": "contract IERC20",
          "name": "token",
          "type": "address"
        }
      ],
      "name": "withdrawToken",
      "outputs": [],
      "stateMutability": "nonpayable",
      "type": "function"
    },
    {
      "inputs": [
        {
          "internalType": "address[]",
          "name": "recipients",
          "type": "address[]"
        },
        {
          "internalType": "uint256[]",
          "name": "values",
          "type": "uint256[]"
        }
      ],
      "name": "getTotal",
      "outputs": [
        {
          "internalType": "uint256",
          "name": "disperseValue",
          "type": "uint256"
        }
      ],
      "stateMutability": "pure",
      "type": "function",
      "constant": true
    }
  ],
  "bytecode": "0x608060405234801561001057600080fd5b506000339050806000806101000a81548173ffffffffffffffffffffffffffffffffffffffff021916908373ffffffffffffffffffffffffffffffffffffffff1602179055508073ffffffffffffffffffffffffffffffffffffffff16600073ffffffffffffffffffffffffffffffffffffffff167f8be0079c531659141344cd1fd0a4f28419497f9722a3daafe3b4186f6b6457e060405160405180910390a350611196806100c16000396000f3fe6080604052600436106100705760003560e01c80638da5cb5b1161004e5780638da5cb5b146100f2578063c73a2d601461011d578063e63d38ed14610146578063f2fde38b1461016257610070565b8063578924e014610075578063715018a6146100b257806389476069146100c9575b600080fd5b34801561008157600080fd5b5061009c60048036038101906100979190610a5f565b61018b565b6040516100a99190610af9565b60405180910390f35b3480156100be57600080fd5b506100c76101ee565b005b3480156100d557600080fd5b506100f060048036038101906100eb9190610b84565b610321565b005b3480156100fe57600080fd5b506101076104d6565b6040516101149190610bc0565b60405180910390f35b34801561012957600080fd5b50610144600480360381019061013f9190610bdb565b6104ff565b005b610160600480360381019061015b9190610a5f565b610694565b005b34801561016e57600080fd5b5061018960048036038101906101849190610c9c565b61079a565b005b6000806000905060005b868690508110156101e1576101cc8585838181106101b6576101b5610cc9565b5b905060200201358361093c90919063ffffffff16565b915080806101d990610d27565b915050610195565b5080915050949350505050565b3373ffffffffffffffffffffffffffffffffffffffff1661020d6104d6565b73ffffffffffffffffffffffffffffffffffffffff1614610263576040517f08c379a000000000000000000000000000000000000000000000000000000000815260040161025a90610dcd565b60405180910390fd5b600073ffffffffffffffffffffffffffffffffffffffff1660008054906101000a900473ffffffffffffffffffffffffffffffffffffffff1673ffffffffffffffffffffffffffffffffffffffff167f8be0079c531659141344cd1fd0a4f28419497f9722a3daafe3b4186f6b6457e060405160405180910390a360008060006101000a81548173ffffffffffffffffffffffffffffffffffffffff021916908373ffffffffffffffffffffffffffffffffffffffff160217905550565b3373ffffffffffffffffffffffffffffffffffffffff166103406104d6565b73ffffffffffffffffffffffffffffffffffffffff1614610396576040517f08c379a000000000000000000000000000000000000000000000000000000000815260040161038d90610dcd565b60405180910390fd5b8073ffffffffffffffffffffffffffffffffffffffff1663a9059cbb6103ba6104d6565b8373ffffffffffffffffffffffffffffffffffffffff166370a08231306040518263ffffffff1660e01b81526004016103f39190610bc0565b602060405180830381865afa158015610410573d6000803e3d6000fd5b505050506040513d601f19601f820116820180604052508101906104349190610e19565b6040518363ffffffff1660e01b8152600401610451929190610e46565b6020604051808303816000875af1158015610470573d6000803e3d6000fd5b505050506040513d601f19601f820116820180604052508101906104949190610ea7565b6104d3576040517f08c379a00000000000000000000000000000000000000000000000000000000081526004016104ca90610f20565b60405180910390fd5b50565b60008060009054906101000a900473ffffffffffffffffffffffffffffffffffffffff16905090565b6000805b8585905081101561064e5761053a84848381811061052457610523610cc9565b5b905060200201358361093c90919063ffffffff16565b91508673ffffffffffffffffffffffffffffffffffffffff166323b872dd3388888581811061056c5761056b610cc9565b5b90506020020160208101906105819190610c9c565b87878681811061059457610593610cc9565b5b905060200201356040518463ffffffff1660e01b81526004016105b993929190610f40565b6020604051808303816000875af11580156105d8573d6000803e3d6000fd5b505050506040513d601f19601f820116820180604052508101906105fc9190610ea7565b61063b576040517f08c379a000000000000000000000000000000000000000000000000000000000815260040161063290610fc3565b60405180910390fd5b808061064690610d27565b915050610503565b507fad44c26c9e5a09d757ef814517212e50fbd1b36fdea21c9bb38326b2be756e544382604051610680929190610fe3565b60405180910390a160009050505050505050565b60005b8484905081101561073c578484828181106106b5576106b4610cc9565b5b90506020020160208101906106ca9190610c9c565b73ffffffffffffffffffffffffffffffffffffffff166108fc8484848181106106f6576106f5610cc9565b5b905060200201359081150290604051600060405180830381858888f19350505050158015610728573d6000803e3d6000fd5b50808061073490610d27565b915050610697565b5060004790506000811115610793573373ffffffffffffffffffffffffffffffffffffffff166108fc829081150290604051600060405180830381858888f19350505050158015610791573d6000803e3d6000fd5b505b5050505050565b3373ffffffffffffffffffffffffffffffffffffffff166107b96104d6565b73ffffffffffffffffffffffffffffffffffffffff161461080f576040517f08c379a000000000000000000000000000000000000000000000000000000000815260040161080690610dcd565b60405180910390fd5b600073ffffffffffffffffffffffffffffffffffffffff168173ffffffffffffffffffffffffffffffffffffffff16141561087f576040517f08c379a00000000000000000000000000000000000000000000000000000000081526004016108769061107e565b60405180910390fd5b8073ffffffffffffffffffffffffffffffffffffffff1660008054906101000a900473ffffffffffffffffffffffffffffffffffffffff1673ffffffffffffffffffffffffffffffffffffffff167f8be0079c531659141344cd1fd0a4f28419497f9722a3daafe3b4186f6b6457e060405160405180910390a3806000806101000a81548173ffffffffffffffffffffffffffffffffffffffff021916908373ffffffffffffffffffffffffffffffffffffffff16021790555050565b600080828461094b919061109e565b905083811015610990576040517f08c379a000000000000000000000000000000000000000000000000000000000815260040161098790611140565b60405180910390fd5b8091505092915050565b600080fd5b600080fd5b600080fd5b600080fd5b600080fd5b60008083601f8401126109c9576109c86109a4565b5b8235905067ffffffffffffffff8111156109e6576109e56109a9565b5b602083019150836020820283011115610a0257610a016109ae565b5b9250929050565b60008083601f840112610a1f57610a1e6109a4565b5b8235905067ffffffffffffffff811115610a3c57610a3b6109a9565b5b602083019150836020820283011115610a5857610a576109ae565b5b9250929050565b60008060008060408587031215610a7957610a7861099a565b5b600085013567ffffffffffffffff811115610a9757610a9661099f565b5b610aa3878288016109b3565b9450945050602085013567ffffffffffffffff811115610ac657610ac561099f565b5b610ad287828801610a09565b925092505092959194509250565b6000819050919050565b610af381610ae0565b82525050565b6000602082019050610b0e6000830184610aea565b92915050565b600073ffffffffffffffffffffffffffffffffffffffff82169050919050565b6000610b3f82610b14565b9050919050565b6000610b5182610b34565b9050919050565b610b6181610b46565b8114610b6c57600080fd5b50565b600081359050610b7e81610b58565b92915050565b600060208284031215610b9a57610b9961099a565b5b6000610ba884828501610b6f565b91505092915050565b610bba81610b34565b82525050565b6000602082019050610bd56000830184610bb1565b92915050565b600080600080600060608688031215610bf757610bf661099a565b5b6000610c0588828901610b6f565b955050602086013567ffffffffffffffff811115610c2657610c2561099f565b5b610c32888289016109b3565b9450945050604086013567ffffffffffffffff811115610c5557610c5461099f565b5b610c6188828901610a09565b92509250509295509295909350565b610c7981610b34565b8114610c8457600080fd5b50565b600081359050610c9681610c70565b92915050565b600060208284031215610cb257610cb161099a565b5b6000610cc084828501610c87565b91505092915050565b7f4e487b7100000000000000000000000000000000000000000000000000000000600052603260045260246000fd5b7f4e487b7100000000000000000000000000000000000000000000000000000000600052601160045260246000fd5b6000610d3282610ae0565b91507fffffffffffffffffffffffffffffffffffffffffffffffffffffffffffffffff821415610d6557610d64610cf8565b5b600182019050919050565b600082825260208201905092915050565b7f4f776e61626c653a2063616c6c6572206973206e6f7420746865206f776e6572600082015250565b6000610db7602083610d70565b9150610dc282610d81565b602082019050919050565b60006020820190508181036000830152610de681610daa565b9050919050565b610df681610ae0565b8114610e0157600080fd5b50565b600081519050610e1381610ded565b92915050565b600060208284031215610e2f57610e2e61099a565b5b6000610e3d84828501610e04565b91505092915050565b6000604082019050610e5b6000830185610bb1565b610e686020830184610aea565b9392505050565b60008115159050919050565b610e8481610e6f565b8114610e8f57600080fd5b50565b600081519050610ea181610e7b565b92915050565b600060208284031215610ebd57610ebc61099a565b5b6000610ecb84828501610e92565b91505092915050565b7f7769746864726177206661696c65640000000000000000000000000000000000600082015250565b6000610f0a600f83610d70565b9150610f1582610ed4565b602082019050919050565b60006020820190508181036000830152610f3981610efd565b9050919050565b6000606082019050610f556000830186610bb1565b610f626020830185610bb1565b610f6f6040830184610aea565b949350505050565b7f546f6b656e20747261736e666572206661696c65640000000000000000000000600082015250565b6000610fad601583610d70565b9150610fb882610f77565b602082019050919050565b60006020820190508181036000830152610fdc81610fa0565b9050919050565b6000604082019050610ff86000830185610aea565b6110056020830184610aea565b9392505050565b7f4f776e61626c653a206e6577206f776e657220697320746865207a65726f206160008201527f6464726573730000000000000000000000000000000000000000000000000000602082015250565b6000611068602683610d70565b91506110738261100c565b604082019050919050565b600060208201905081810360008301526110978161105b565b9050919050565b60006110a982610ae0565b91506110b483610ae0565b9250827fffffffffffffffffffffffffffffffffffffffffffffffffffffffffffffffff038211156110e9576110e8610cf8565b5b828201905092915050565b7f536166654d6174683a206164646974696f6e206f766572666c6f770000000000600082015250565b600061112a601b83610d70565b9150611135826110f4565b602082019050919050565b600060208201905081810360008301526111598161111d565b905091905056fea2646970667358221220d182565c371828243347d16d5ec86f55df99f485015739f60a8c932c6374beb464736f6c634300080a0033",
  "immutableReferences": {},
  "source": "// SPDX-License-Identifier: MIT\r\npragma solidity 0.8.10;\r\n\r\ninterface IERC20 {\r\n    function balanceOf(address account) external view returns (uint256);\r\n\r\n    function transfer(address to, uint256 value) external returns (bool);\r\n\r\n    function transferFrom(\r\n        address from,\r\n        address to,\r\n        uint256 value\r\n    ) external returns (bool);\r\n}\r\n\r\nabstract contract Ownable {\r\n    address private _owner;\r\n\r\n    event OwnershipTransferred(\r\n        address indexed previousOwner,\r\n        address indexed newOwner\r\n    );\r\n\r\n    /**\r\n     * @dev Initializes the contract setting the deployer as the initial owner.\r\n     */\r\n    constructor() {\r\n        address msgSender = msg.sender;\r\n        _owner = msgSender;\r\n        emit OwnershipTransferred(address(0), msgSender);\r\n    }\r\n\r\n    /**\r\n     * @dev Returns the address of the current owner.\r\n     */\r\n    function owner() public view virtual returns (address) {\r\n        return _owner;\r\n    }\r\n\r\n    /**\r\n     * @dev Throws if called by any account other than the owner.\r\n     */\r\n    modifier onlyOwner() {\r\n        require(owner() == msg.sender, \"Ownable: caller is not the owner\");\r\n        _;\r\n    }\r\n\r\n    /**\r\n     * @dev Leaves the contract without owner. It will not be possible to call\r\n     * `onlyOwner` functions anymore. Can only be called by the current owner.\r\n     *\r\n     * NOTE: Renouncing ownership will leave the contract without an owner,\r\n     * thereby removing any functionality that is only available to the owner.\r\n     */\r\n    function renounceOwnership() public virtual onlyOwner {\r\n        emit OwnershipTransferred(_owner, address(0));\r\n        _owner = address(0);\r\n    }\r\n\r\n    /**\r\n     * @dev Transfers ownership of the contract to a new account (`newOwner`).\r\n     * Can only be called by the current owner.\r\n     */\r\n    function transferOwnership(address newOwner) public virtual onlyOwner {\r\n        require(\r\n            newOwner != address(0),\r\n            \"Ownable: new owner is the zero address\"\r\n        );\r\n        emit OwnershipTransferred(_owner, newOwner);\r\n        _owner = newOwner;\r\n    }\r\n}\r\n\r\nlibrary SafeMath {\r\n    function add(uint256 a, uint256 b) internal pure returns (uint256) {\r\n        uint256 c = a + b;\r\n        require(c >= a, \"SafeMath: addition overflow\");\r\n\r\n        return c;\r\n    }\r\n}\r\n\r\ncontract Disperse is Ownable {\r\n    using SafeMath for uint256;\r\n\r\n    event ALL_TRANSFERRED(uint256 block, uint256 value);\r\n\r\n    function disperseEther(\r\n        address[] calldata recipients,\r\n        uint256[] calldata values\r\n    ) external payable {\r\n        for (uint256 i = 0; i < recipients.length; i++)\r\n            payable(recipients[i]).transfer(values[i]);\r\n        uint256 balance = address(this).balance;\r\n        if (balance > 0) payable(msg.sender).transfer(balance);\r\n    }\r\n\r\n    function disperseToken(\r\n        IERC20 token,\r\n        address[] calldata recipients,\r\n        uint256[] calldata values\r\n    ) external {\r\n        uint256 total = 0;\r\n        for (uint256 i = 0; i < recipients.length; i++) {\r\n            total = total.add(values[i]);\r\n            require(\r\n                token.transferFrom(msg.sender, recipients[i], values[i]),\r\n                \"Token trasnfer failed\"\r\n            );\r\n        }\r\n\r\n        emit ALL_TRANSFERRED(block.number, total);\r\n        total = 0;\r\n    }\r\n\r\n    function withdrawToken(IERC20 token) external onlyOwner {\r\n        require(\r\n            token.transfer(owner(), token.balanceOf(address(this))),\r\n            \"withdraw failed\"\r\n        );\r\n    }\r\n\r\n    function getTotal(address[] calldata recipients, uint256[] calldata values)\r\n        external\r\n        pure\r\n        returns (uint256 disperseValue)\r\n    {\r\n        uint256 total = 0;\r\n        for (uint256 i = 0; i < recipients.length; i++) {\r\n            total = total.add(values[i]);\r\n        }\r\n        return total;\r\n    }\r\n}\r\n",
  "sourcePath": "C:\\Users\\Sudeep\\Desktop\\personal\\trodl\\disperse\\contracts\\Disperse.sol",
  "compiler": {
    "name": "solc",
    "version": "0.8.10+commit.fc410830.Emscripten.clang"
  },
  "schemaVersion": "3.4.2",
  "updatedAt": "2021-12-22T10:22:55.979Z",
  "networkType": "ethereum",
  "devdoc": {
    "kind": "dev",
    "methods": {
      "owner()": {
        "details": "Returns the address of the current owner."
      },
      "renounceOwnership()": {
        "details": "Leaves the contract without owner. It will not be possible to call `onlyOwner` functions anymore. Can only be called by the current owner. NOTE: Renouncing ownership will leave the contract without an owner, thereby removing any functionality that is only available to the owner."
      },
      "transferOwnership(address)": {
        "details": "Transfers ownership of the contract to a new account (`newOwner`). Can only be called by the current owner."
      }
    },
    "version": 1
  },
  "userdoc": {
    "kind": "user",
    "methods": {},
    "version": 1
  }
}